:10000000BAC00000D3C00000D1C00000CFC00000C3
:10001000CDC00000CBC00000C9C00000C7C00000B8
:10002000C5C00000C3C00000F3C50000BFC0000091
:10003000BDC00000BBC00000B9C00000B7C00000D8
:10004000B5C00000B3C00000B1C00000AFC00000E8
:10005000ADC00000ABC00000A9C00000A7C00000F8
:10006000A5C00000E9C20000A1C000009FC00000C0
:100070009DC000009BC0000099C0000097C0000018
:1000800095C0000093C0000091C000008FC0000028
:100090008DC000008BC0000089C0000087C0000038
:1000A00085C0000083C0000081C000002E034C000A
:1000B00055004600410020004B00650079006200B9
:1000C0006F00610072006400200045006D00750043
:1000D0006C00610074006F00720000001A0347009A
:1000E0006F006F0067006C00650020005300650022
:1000F000720076006F000000040309040902290061
:10010000010100C0320904000002030101000921BD
:1001100011010001223F00070581030800050705C2
:1001200002030800051201100100000008EB034261
:100130002001000102000105010906A101050719BE
:10014000E029E715002501750195088102950175E3
:100150000881010508190129059505750191029588
:10016000017503910115002565050719002965959D
:100170000675088100C011241FBECFEFDAE0DEBF94
:10018000CDBF11E0A0E0B1E0E0E9F0E102C00590F0
:100190000D92A238B107D9F712E0A2E8B1E001C090
:1001A0001D92A73BB107E1F7B9D270C729CFFC0177
:1001B000A081B1816C93808191810196918380832C
:1001C000268137818217930721F484819581918359
:1001D00080832FB7F89482859385019693878287D1
:1001E0002FBF0895FC01A281B3818D91B383A283B7
:1001F00026813781A217B30721F424813581338307
:1002000022839FB7F89422853385215031093387A3
:1002100022879FBF08951092A4021092A502109207
:10022000A6021092A7021092A8021092A9020895A5
:10023000E4EAF2E020E030E09191981771F091113A
:1002400005C0F901EC55FD4F808307C02F5F3F4F7C
:100250002630310589F78093A40281E090E008956B
:10026000E4EAF2E020E030E09191981307C0F90150
:10027000EC55FD4F108281E090E008952F5F3F4FD5
:100280002630310589F780E090E0089581E0809381
:1002900002010895089542E061EC81E0D6D342E086
:1002A00060EC82E0D2D3E2EEF0E080818460808373
:1002B00008958091A2029091A302009729F00197DE
:1002C0009093A3028093A20208951F93CF93DF938C
:1002D000EC0188E0DE011D928A95E9F72FB7F894CA
:1002E00080911402909115022FBF892BF1F08AE0C2
:1002F00092E078DF182F682F609586E992E057DF4B
:1003000017FF04C0812F8F77ABDF0FC01F3769F055
:10031000E12FF0E0ED5FFE4F80818C3911F47BDF3F
:1003200004C0112311F0812F83DFE4EAF2E080E0C2
:1003300090E040E0A081AA2359F09E01240F311DD6
:10034000B0E0AD5FBE4F5C91D90112965C934F5FF8
:10035000A081B0E0AD5FBE4F2C91213E19F4288101
:1003600022602883A081B0E0AD5FBE4F2C91253E76
:1003700019F4288120622883A081B0E0AD5FBE4FD0
:100380002C91203E19F4288121602883A081B0E0BF
:10039000AD5FBE4F2C91243E19F428812061288343
:1003A000A081B0E0AD5FBE4F2C91223E19F42881B0
:1003B00024602883A081B0E0AD5FBE4F2C91263E23
:1003C00019F4288120642883A081B0E0AD5FBE4F7E
:1003D0002C91233E19F4288128602883A081B0E065
:1003E000AD5FBE4F2C91273E19F4288120682883E9
:1003F000019631968630910509F09CCFDF91CF911F
:100400001F910895CF93DF93CDB7DEB728970FB62E
:10041000F894DEBF0FBECDBF8091B002833009F4E7
:1004200042C030F4813071F0823009F478C090C05D
:100430008A3009F45BC08B3009F442C0893009F07E
:1004400087C018C08091AF02813A09F081C0CE0107
:1004500001963BDF8091E800877F8093E80068E0A9
:1004600070E0CE0101962ED28091E8008B778093C8
:10047000E8006EC08091AF02813209F069C08091BE
:10048000E800877F8093E8008091E80082FD05C046
:100490008091AE028111F8CF5BC08091F100809114
:1004A000E8008B7752C08091AF02813A09F050C0CA
:1004B0008091E800877F8093E8008091020140C02E
:1004C0008091AF02813209F043C08091E800877FBC
:1004D0008093E800EFD221E08091B1029091B202C6
:1004E000892B09F420E02093020132C08091AF02F1
:1004F000813271F58091E800877F8093E800DAD23D
:100500008091B1029091B202882736E09695879546
:100510003A95E1F7909301018093000119C0809111
:10052000AF02813AA9F48091E800877F8093E800C8
:1005300080910001909101019695879596958795F8
:100540008093F1008091E8008E778093E800B2D22A
:1005500028960FB6F894DEBF0FBECDBFDF91CF91C6
:100560000895CF93DF93CDB7DEB728970FB6F894F1
:10057000DEBF0FBECDBFCE010196A7DE8091000188
:1005800090910101009761F02091A2023091A302A5
:10059000232B31F49093A3028093A20221E00CC09C
:1005A00048E050E0BE016F5F7F4F82E891E061D587
:1005B00021E0892B09F420E081E08093E90080911B
:1005C000E80085FF17C02223A9F088E0FE013196DC
:1005D000A2E8B1E001900D928A95E1F740E050E089
:1005E00068E070E0CE01019625D18091E8008E7719
:1005F0008093E80028960FB6F894DEBF0FBECDBFFB
:10060000DF91CF91089582E08093E9008091E80026
:1006100082FF0AC08091E80085FD8091F100809101
:10062000E8008B778093E80008958091AE028430D3
:1006300011F497DFE8CF08951F920F920FB60F9233
:1006400011242F933F934F935F936F937F938F93D7
:100650009F93AF93BF93EF93FF936091CE0061118F
:1006600004C06FEF86E992E014C08091AE0284303E
:1006700089F48FB7F89420911402309115028FBF3E
:1006800080911202909113022817390719F08AE01D
:1006900092E08DDDFF91EF91BF91AF919F918F918E
:1006A0007F916F915F914F913F912F910F900FBE6E
:1006B0000F901F901895CF93DF93A9ECB0E01C9298
:1006C000C8ECD0E01882EAECF0E010825B9A87E692
:1006D00090E09093CD008093CC0082E0888388E9FD
:1006E0008C9386E080835B98DF91CF91089584B7E7
:1006F000877F84BF88E10FB6F894809360001092E2
:1007000060000FBE90E080E80FB6F894809361001F
:10071000909361000FBE7FDD5ED2CDCFE8DFE6E9CA
:10072000F2E02FB7F89486E192E09183808393837F
:1007300082839583848386E992E09783868380E829
:1007400090E091878087138612862FBFEAE0F2E05F
:100750002FB7F8948AE891E0918380839383828312
:10076000958384838AE092E09783868380E890E093
:1007700091878087138612862FBF78948091C80056
:1007800085FF12C02FB7F8948091A0029091A1022A
:100790002FBF892B49F086E992E024DD9091C800B3
:1007A00095FFFCCF8093CE0040DF47D4E7CF292FC1
:1007B000332723303105B9F05CF42130310569F17C
:1007C0002230310579F589E290E02CEF30E02EC03F
:1007D00021323105E9F02232310521F58FE390E035
:1007E00027E331E023C099278130910541F0823021
:1007F000910541F0892BB1F4E8EFF0E005C0ECED94
:10080000F0E002C0ECEAF0E0849190E09F010EC0BD
:1008100089E090E02EE031E009C082E190E025E23D
:1008200031E004C080E090E020E030E0FA01318364
:1008300020830895CF92DF92EF92FF920F931F9340
:10084000CF93DF937C018B01EA0155D1811131C037
:10085000209731F088819981081B190BE80EF91E49
:10086000C12CD12C0115110519F18091E80085FDED
:1008700014C08091E8008E778093E800DED3209743
:1008800041F0888199818C0D9D1D9983888385E035
:1008900010C031D1882331F30CC0F70181917F0161
:1008A0008093F10001501109FFEFCF1ADF0ADACF70
:1008B00080E0DF91CF911F910F91FF90EF90DF903B
:1008C000CF9008952091B5023091B60226173707D0
:1008D00048F06115710539F42091E8002E772093D6
:1008E000E80001C0B901FC0120E061157105B9F112
:1008F0008091AE02882309F440C0853009F43FC0DE
:100900008091E80083FD3DC08091E80082FF06C031
:100910008091E80082FF26C080E008958091E80081
:1009200080FFE3CF2091F3008091F20090E0922BC2
:100930006115710551F08830910538F421912093AB
:10094000F100615071090196F3CF21E0089709F099
:1009500020E08091E8008E778093E800C6CF2111D7
:10096000C7CFD6CF8091AE02882339F0853039F0D9
:100970008091E80083FFCCCF04C082E0089583E03B
:10098000089581E008952091B5023091B6022617AE
:10099000370748F06115710539F42091E8002E778A
:1009A0002093E80001C0B901FC0120E06115710548
:1009B000C1F18091AE02882309F441C0853009F469
:1009C00040C08091E80083FD3EC08091E80082FF36
:1009D00006C08091E80082FF27C080E008958091E2
:1009E000E80080FFE3CF2091F3008091F20090E0D7
:1009F000922B6115710559F08830910540F42491CE
:100A00002093F1003196615071090196F2CF21E0F7
:100A1000089709F020E08091E8008E778093E80045
:100A2000C5CF2111C6CFD5CF8091AE02882339F032
:100A3000853039F08091E80083FFCBCF04C082E09D
:100A4000089583E0089581E00895982F973058F530
:100A50009093E900981739F07091EC002091ED0027
:100A60005091F00003C0242F762F50E021FF19C0D1
:100A70003091EB003E7F3093EB003091ED003D7FF5
:100A80003093ED003091EB0031603093EB007093C8
:100A9000EC002093ED005093F0002091EE0027FF32
:100AA00007C09F5FD3CF8F708093E90081E00895E6
:100AB00080E008958091AF0287FD05C08091E80035
:100AC00080FF0EC012C08091E80082FD05C08091B9
:100AD000AE028111F8CF08958091E8008B7708C0AD
:100AE0008091AE028111EACF08958091E8008E775F
:100AF0008093E80008958091E4009091E50045E638
:100B00002091EC0020FF21C02091E80020FD21C0B1
:100B10002091AE02222389F0253089F02091EB004C
:100B200025FD0FC02091E4003091E500281739071A
:100B300039F3415041F0C901E3CF82E0089583E0E9
:100B4000089581E0089584E008952091E80022FF4F
:100B5000DFCF80E008950F931F93CF93DF934BD0A7
:100B600052D0C8EDD0E088818F77888388818068F3
:100B7000888388818F7D888319BC1092AE02109281
:100B8000AA021092AC021092AB0200EE10E0F80143
:100B900080818B7F808388818160888342E060E0F0
:100BA00080E053DFE1EEF0E080818E7F8083E2EE33
:100BB000F0E0808181608083808188608083F8019B
:100BC00080818E7F8083888180618883DF91CF914F
:100BD0001F910F910895E8EDF0E080818F7E808372
:100BE000E7EDF0E080818160808384E082BF81E076
:100BF0008093AD02B0CFE8EDF0E080818E7F8083FE
:100C00001092E20008951092DA001092E100089527
:100C10001F920F920FB60F9211242F933F934F9371
:100C20005F936F937F938F939F93AF93BF93EF9354
:100C3000FF938091E10082FF0AC08091E20082FF71
:100C400006C08091E1008B7F8093E10032DB8091D0
:100C5000DA0080FF1BC08091D80080FF17C0809110
:100C6000DA008E7F8093DA008091D90019BC80FF72
:100C70000AC082E089BD09B400FEFDCF81E0809307
:100C8000AE0204DB03C01092AE0204DB8091E100EF
:100C900080FF18C08091E20080FF14C08091E200C4
:100CA0008E7F8093E2008091E20080618093E20079
:100CB0008091D80080628093D80019BC85E0809331
:100CC000AE02BAD18091E10084FF2EC08091E20093
:100CD00084FF2AC019BC82E089BD09B400FEFDCFA3
:100CE0008091D8008F7D8093D8008091E1008F7E25
:100CF0008093E1008091E2008F7E8093E2008091FA
:100D0000E20081608093E2008091AA02882311F0C2
:100D100084E007C08091E30087FF02C083E001C048
:100D200081E08093AE0288D18091E10083FF22C0F0
:100D30008091E20083FF1EC08091E100877F809355
:100D4000E10082E08093AE021092AA028091E1005D
:100D50008E7F8093E1008091E2008E7F8093E2009D
:100D60008091E20080618093E20042E060E080E0F8
:100D70006CDE62D1FF91EF91BF91AF919F918F9106
:100D80007F916F915F914F913F912F910F900FBE87
:100D90000F901F9018951F93CF93DF93CDB7DEB7B9
:100DA000AA970FB6F894DEBF0FBECDBFEFEAF2E010
:100DB0008091F100819322E0E73BF207C9F722DB43
:100DC0008091E80083FF20C19091AF028091B00232
:100DD000853009F477C030F4813081F168F08330D8
:100DE00069F112C1883009F4E1C0893009F4F0C01A
:100DF000863009F009C188C0903881F0923809F036
:100E000003C18091B3028F708093E9008091EB0061
:100E100085FB882780F91092E90006C08091AB021B
:100E20009091AC02911182609091E800977F90932D
:100E3000E8008093F1001092F100C3C0292F2D7FAC
:100E400009F0E2C0992319F0923061F0DDC0909171
:100E5000B102913009F0D8C0833009F090E090934E
:100E6000AC022AC09091B102911126C02091B30228
:100E70002F7009F4C9C02093E9009091EB0090FF16
:100E80001BC0833021F48091EB00806213C08091FD
:100E9000EB0080618093EB0081E090E0022E01C0C6
:100EA000880F0A94EAF78093EA001092EA00809192
:100EB000EB0088608093EB001092E9008091E800DD
:100EC000877F82C09111A0C01091B1021F778091DD
:100ED000E3008078812B8093E3008091E800877F96
:100EE0008093E800E7DD8091E80080FFFCCF8091EF
:100EF000E30080688093E300112311F083E001C0D8
:100F000082E08093AE0280C09058923008F07CC09E
:100F10008091B1029091B2028C3D23E0920771F56D
:100F200083E08A838AE289834FB7F894DE011396BF
:100F300020E03EE051E2E32FF0E050935700E491CF
:100F400020FF03C0E295EF703F5FEF708E2F90E0BF
:100F5000EA3010F0C79601C0C0968D939D932F5F25
:100F6000243149F74FBF8091E800877F8093E800E4
:100F70006AE270E0CE010196A5DC12C0AE014F5FBF
:100F80005F4F6091B30213DC009709F43DC02091DC
:100F9000E800277F2093E800BC0189819A81F3DC77
:100FA0008091E8008B778093E8002EC0903861F53F
:100FB0008091E800877F8093E8008091AA02809367
:100FC000F1008091E8008E778093E80073DD1CC00B
:100FD00091111AC09091B1029230B0F48091E80062
:100FE000877F8093E8009093AA0264DD8091AA0233
:100FF000811104C08091E30087FF02C084E001C03A
:1010000081E08093AE0247D98091E80083FF0AC057
:101010008091E800877F8093E8008091EB008062F8
:101020008093EB00AA960FB6F894DEBF0FBECDBF3B
:10103000DF91CF911F9108950895CF938091AE02D3
:101040008823A9F08091E9008F709091EC0090FFC7
:1010500002C090E801C090E0C92FC82B1092E900AF
:101060008091E80083FD97DECF70C093E900CF91B7
:101070000895FB01DC0104C08D910190801921F4D9
:1010800041505040C8F7881B990B0895F894FFCF42
:10109000F4010100321E1F20212223242526272DA2
:1010A0002E002A2B141A0815171C180C12132F3097
:1010B0003139041607090A0B0D0E0F33340028E1ED
:1010C000001D1B06190511103637389CE5E000E2BB
:1010D0002CE600E400000000000000000000494C85
:1010E0000000504A4D0052514B4E00004F535F5C80
:1010F000590054605D5A6255615E5B6356575800F3
:101100000029003A3B3C3D3E3F4041424344454676
:0211100047484E
:00000001FF
